{
	"abi": [
		{
			"inputs": [
				{
					"internalType": "address",
					"name": "_newOwner",
					"type": "address"
				},
				{
					"internalType": "address",
					"name": "_poolOwner",
					"type": "address"
				}
			],
			"stateMutability": "nonpayable",
			"type": "constructor"
		},
		{
			"anonymous": false,
			"inputs": [
				{
					"indexed": true,
					"internalType": "address",
					"name": "previousOwner",
					"type": "address"
				},
				{
					"indexed": true,
					"internalType": "address",
					"name": "newOwner",
					"type": "address"
				}
			],
			"name": "OwnershipTransferred",
			"type": "event"
		},
		{
			"inputs": [
				{
					"internalType": "address",
					"name": "_trader",
					"type": "address"
				},
				{
					"internalType": "string",
					"name": "_name",
					"type": "string"
				},
				{
					"internalType": "string",
					"name": "_symbol",
					"type": "string"
				},
				{
					"internalType": "uint256",
					"name": "_initialDepositShareValue",
					"type": "uint256"
				}
			],
			"name": "createPool",
			"outputs": [],
			"stateMutability": "nonpayable",
			"type": "function"
		},
		{
			"inputs": [
				{
					"internalType": "address",
					"name": "_trader",
					"type": "address"
				}
			],
			"name": "getPool",
			"outputs": [
				{
					"internalType": "contract IStrategyPool",
					"name": "",
					"type": "address"
				}
			],
			"stateMutability": "view",
			"type": "function"
		},
		{
			"inputs": [],
			"name": "owner",
			"outputs": [
				{
					"internalType": "address",
					"name": "",
					"type": "address"
				}
			],
			"stateMutability": "view",
			"type": "function"
		},
		{
			"inputs": [],
			"name": "poolOwner",
			"outputs": [
				{
					"internalType": "address",
					"name": "",
					"type": "address"
				}
			],
			"stateMutability": "view",
			"type": "function"
		},
		{
			"inputs": [],
			"name": "renounceOwnership",
			"outputs": [],
			"stateMutability": "nonpayable",
			"type": "function"
		},
		{
			"inputs": [
				{
					"internalType": "uint256",
					"name": "",
					"type": "uint256"
				}
			],
			"name": "traderAddresses",
			"outputs": [
				{
					"internalType": "address",
					"name": "",
					"type": "address"
				}
			],
			"stateMutability": "view",
			"type": "function"
		},
		{
			"inputs": [
				{
					"internalType": "address",
					"name": "",
					"type": "address"
				}
			],
			"name": "traderToPool",
			"outputs": [
				{
					"internalType": "contract IStrategyPool",
					"name": "",
					"type": "address"
				}
			],
			"stateMutability": "view",
			"type": "function"
		},
		{
			"inputs": [
				{
					"internalType": "address",
					"name": "newOwner",
					"type": "address"
				}
			],
			"name": "transferOwnership",
			"outputs": [],
			"stateMutability": "nonpayable",
			"type": "function"
		}
	],
	"bytecode": {
		"object": "0x608060405234801561001057600080fd5b50604051613f4b380380613f4b83398101604081905261002f916100d3565b61003833610067565b61004182610067565b600180546001600160a01b0319166001600160a01b039290921691909117905550610106565b600080546001600160a01b038381166001600160a01b0319831681178455604051919092169283917f8be0079c531659141344cd1fd0a4f28419497f9722a3daafe3b4186f6b6457e09190a35050565b80516001600160a01b03811681146100ce57600080fd5b919050565b600080604083850312156100e657600080fd5b6100ef836100b7565b91506100fd602084016100b7565b90509250929050565b613e36806101156000396000f3fe60806040523480156200001157600080fd5b5060043610620000935760003560e01c80638da5cb5b11620000625780638da5cb5b146200011a578063bbe4f6db146200012c578063cf0b2270146200015b578063f2fde38b146200016f57600080fd5b806317dcf29b146200009857806354d0b4c614620000cb578063715018a614620000e4578063804905c914620000ee575b600080fd5b620000af620000a936600462000439565b62000186565b6040516001600160a01b03909116815260200160405180910390f35b620000e2620000dc3660046200051b565b620001b1565b005b620000e2620002e8565b620000af620000ff366004620005a0565b6002602052600090815260409020546001600160a01b031681565b6000546001600160a01b0316620000af565b620000af6200013d366004620005a0565b6001600160a01b039081166000908152600260205260409020541690565b600154620000af906001600160a01b031681565b620000e262000180366004620005a0565b62000300565b600381815481106200019757600080fd5b6000918252602090912001546001600160a01b0316905081565b620001bb6200037f565b6001600160a01b038481166000908152600260205260409020541615620002295760405162461bcd60e51b815260206004820152601e60248201527f706f6f6c20616c72656164792065786973747320666f7220747261646572000060448201526064015b60405180910390fd5b600154604051600091859185916001600160a01b03169085906200024d906200042b565b6200025c94939291906200060d565b604051809103906000f08015801562000279573d6000803e3d6000fd5b506001600160a01b0395861660008181526002602052604081208054989093166001600160a01b0319988916179092556003805460018101825592527fc2575a0e9e593c00f959f8c92f12db2869c3395a3b0502d05e2516446f71f85b90910180549096161790945550505050565b620002f26200037f565b620002fe6000620003db565b565b6200030a6200037f565b6001600160a01b038116620003715760405162461bcd60e51b815260206004820152602660248201527f4f776e61626c653a206e6577206f776e657220697320746865207a65726f206160448201526564647265737360d01b606482015260840162000220565b6200037c81620003db565b50565b6000546001600160a01b03163314620002fe5760405162461bcd60e51b815260206004820181905260248201527f4f776e61626c653a2063616c6c6572206973206e6f7420746865206f776e6572604482015260640162000220565b600080546001600160a01b038381166001600160a01b0319831681178455604051919092169283917f8be0079c531659141344cd1fd0a4f28419497f9722a3daafe3b4186f6b6457e09190a35050565b6137ad806200065483390190565b6000602082840312156200044c57600080fd5b5035919050565b80356001600160a01b03811681146200046b57600080fd5b919050565b634e487b7160e01b600052604160045260246000fd5b600082601f8301126200049857600080fd5b813567ffffffffffffffff80821115620004b657620004b662000470565b604051601f8301601f19908116603f01168101908282118183101715620004e157620004e162000470565b81604052838152866020858801011115620004fb57600080fd5b836020870160208301376000602085830101528094505050505092915050565b600080600080608085870312156200053257600080fd5b6200053d8562000453565b9350602085013567ffffffffffffffff808211156200055b57600080fd5b620005698883890162000486565b945060408701359150808211156200058057600080fd5b506200058f8782880162000486565b949793965093946060013593505050565b600060208284031215620005b357600080fd5b620005be8262000453565b9392505050565b6000815180845260005b81811015620005ed57602081850181015186830182015201620005cf565b506000602082860101526020601f19601f83011685010191505092915050565b608081526000620006226080830187620005c5565b8281036020840152620006368187620005c5565b6001600160a01b039590951660408401525050606001529291505056fe60806040523480156200001157600080fd5b50604051620037ad380380620037ad8339810160408190526200003491620001c3565b83836003620000448382620002e5565b506004620000538282620002e5565b505050620000706200006a620000a860201b60201c565b620000ac565b60016006556200008082620000ac565b6200008e6012600a620004c6565b6200009a9082620004de565b600a5550620004f892505050565b3390565b600580546001600160a01b038381166001600160a01b0319831681179093556040519116919082907f8be0079c531659141344cd1fd0a4f28419497f9722a3daafe3b4186f6b6457e090600090a35050565b634e487b7160e01b600052604160045260246000fd5b600082601f8301126200012657600080fd5b81516001600160401b0380821115620001435762000143620000fe565b604051601f8301601f19908116603f011681019082821181831017156200016e576200016e620000fe565b816040528381526020925086838588010111156200018b57600080fd5b600091505b83821015620001af578582018301518183018401529082019062000190565b600093810190920192909252949350505050565b60008060008060808587031215620001da57600080fd5b84516001600160401b0380821115620001f257600080fd5b620002008883890162000114565b955060208701519150808211156200021757600080fd5b50620002268782880162000114565b604087015190945090506001600160a01b03811681146200024657600080fd5b6060959095015193969295505050565b600181811c908216806200026b57607f821691505b6020821081036200028c57634e487b7160e01b600052602260045260246000fd5b50919050565b601f821115620002e057600081815260208120601f850160051c81016020861015620002bb5750805b601f850160051c820191505b81811015620002dc57828155600101620002c7565b5050505b505050565b81516001600160401b03811115620003015762000301620000fe565b620003198162000312845462000256565b8462000292565b602080601f831160018114620003515760008415620003385750858301515b600019600386901b1c1916600185901b178555620002dc565b600085815260208120601f198616915b82811015620003825788860151825594840194600190910190840162000361565b5085821015620003a15787850151600019600388901b60f8161c191681555b5050505050600190811b01905550565b634e487b7160e01b600052601160045260246000fd5b600181815b8085111562000408578160001904821115620003ec57620003ec620003b1565b80851615620003fa57918102915b93841c9390800290620003cc565b509250929050565b6000826200042157506001620004c0565b816200043057506000620004c0565b8160018114620004495760028114620004545762000474565b6001915050620004c0565b60ff841115620004685762000468620003b1565b50506001821b620004c0565b5060208310610133831016604e8410600b841016171562000499575081810a620004c0565b620004a58383620003c7565b8060001904821115620004bc57620004bc620003b1565b0290505b92915050565b6000620004d760ff84168362000410565b9392505050565b8082028115828204841417620004c057620004c0620003b1565b6132a580620005086000396000f3fe608060405234801561001057600080fd5b50600436106102065760003560e01c80637501f7411161011a578063a9059cbb116100ad578063cd88e5581161007c578063cd88e55814610412578063ce96cb771461043b578063d905777e1461044e578063dd62ed3e14610461578063f2fde38b1461047457600080fd5b8063a9059cbb146103db578063b029b271146103ee578063ba087652146103f6578063cc759e221461040957600080fd5b806395d89b41116100e957806395d89b411461039a57806398c601aa146103a2578063a457c2d7146103b5578063a6df16d7146103c857600080fd5b80637501f7411461033a578063867c1247146103425780638da5cb5b1461036257806390712bd81461038757600080fd5b806343998bdd1161019d57806362c9fc3d1161016c57806362c9fc3d146102df5780636417d15c146102bc57806370a08231146102f4578063715018a61461031d57806371a973051461032557600080fd5b806343998bdd146102bc57806348b6602a146102cf5780634cdad506146102295780636083e59a146102d757600080fd5b806323b872dd116101d957806323b872dd1461027f578063313ce5671461029257806339509351146102a157806341b3d185146102b457600080fd5b806306fdde031461020b57806307a2d13a14610229578063095ea7b31461024a57806318160ddd1461026d575b600080fd5b610213610487565b6040516102209190612a60565b60405180910390f35b61023c610237366004612a93565b610519565b604051610220929190612b20565b61025d610258366004612b5a565b610530565b6040519015158152602001610220565b6002545b604051908152602001610220565b61025d61028d366004612b86565b61054a565b60405160128152602001610220565b61025d6102af366004612b5a565b610570565b61023c610592565b6102716102ca366004612d01565b6107ab565b61023c6107b9565b61023c6108ea565b6102f26102ed366004612daa565b610907565b005b610271610302366004612e16565b6001600160a01b031660009081526020819052604090205490565b6102f2610f4e565b61032d610f62565b6040516102209190612e33565b610271610fc3565b610271610350366004612e16565b60096020526000908152604090205481565b6005546001600160a01b03165b6040516001600160a01b039091168152602001610220565b6102f2610395366004612a93565b610fdf565b610213611003565b6102716103b0366004612e46565b611012565b61025d6103c3366004612b5a565b6110dc565b61036f6103d6366004612a93565b611162565b61025d6103e9366004612b5a565b61118c565b61027161119a565b61023c610404366004612ebe565b6112e4565b610271600a5481565b610271610420366004612e16565b6001600160a01b031660009081526009602052604090205490565b61023c610449366004612e16565b61137e565b61027161045c366004612e16565b6113a3565b61027161046f366004612ef5565b6113c1565b6102f2610482366004612e16565b6113ec565b60606003805461049690612f2e565b80601f01602080910402602001604051908101604052809291908181526020018280546104c290612f2e565b801561050f5780601f106104e45761010080835404028352916020019161050f565b820191906000526020600020905b8154815290600101906020018083116104f257829003601f168201915b5050505050905090565b606080610527836000611465565b91509150915091565b60003361053e81858561158e565b60019150505b92915050565b6000336105588582856116b2565b61056385858561172c565b60019150505b9392505050565b60003361053e81858561058383836113c1565b61058d9190612f78565b61158e565b606080600060078054905067ffffffffffffffff8111156105b5576105b5612bc7565b6040519080825280602002602001820160405280156105de578160200160208202803683370190505b50905060005b60075481101561074257600960006007838154811061060557610605612f8b565b60009182526020808320909101546001600160a01b0316835282019290925260400190205461063360025490565b1061065d57600182828151811061064c5761064c612f8b565b602002602001018181525050610730565b600254600960006007848154811061067757610677612f8b565b60009182526020808320909101546001600160a01b031683528201929092526040019020546106a69190612fb7565b156106b25760016106b5565b60005b60ff166106c160025490565b60096000600785815481106106d8576106d8612f8b565b60009182526020808320909101546001600160a01b031683528201929092526040019020546107079190612fcb565b6107119190612f78565b82828151811061072357610723612f8b565b6020026020010181815250505b8061073a81612fdf565b9150506105e4565b506007818180548060200260200160405190810160405280929190818152602001828054801561079b57602002820191906000526020600020905b81546001600160a01b0316815260019091019060200180831161077d575b5050505050915092509250509091565b6000610569838360006118d0565b600754606090819060008167ffffffffffffffff8111156107dc576107dc612bc7565b604051908082528060200260200182016040528015610805578160200160208202803683370190505b50905060005b8281101561088057600960006007838154811061082a5761082a612f8b565b60009182526020808320909101546001600160a01b03168352820192909252604001902054825183908390811061086357610863612f8b565b60209081029190910101528061087881612fdf565b91505061080b565b50600781818054806020026020016040519081016040528092919081815260200182805480156108d957602002820191906000526020600020905b81546001600160a01b031681526001909101906020018083116108bb575b505050505091509350935050509091565b6060806108ff6108f8610fc3565b6000611465565b915091509091565b61090f611aac565b6007546109535760405162461bcd60e51b815260206004820152600d60248201526c706f6f6c20697320656d70747960981b60448201526064015b60405180910390fd5b8281146109a25760405162461bcd60e51b815260206004820152601e60248201527f617272617973206d757374206265206f6620657175616c206c656e6774680000604482015260640161094a565b60005b83811015610f005760006109d08484848181106109c4576109c4612f8b565b90506020020135611b06565b9050610a198686848181106109e7576109e7612f8b565b90506020020160208101906109fc9190612e16565b6001600160a01b0316600090815260086020526040902054151590565b15610da5576000848484818110610a3257610a32612f8b565b905060200201351215610cb3578060096000888886818110610a5657610a56612f8b565b9050602002016020810190610a6b9190612e16565b6001600160a01b03166001600160a01b031681526020019081526020016000206000828254610a9a9190612ff8565b90915550600990506000878785818110610ab657610ab6612f8b565b9050602002016020810190610acb9190612e16565b6001600160a01b03166001600160a01b0316815260200190815260200160002054600003610b6457610b22868684818110610b0857610b08612f8b565b9050602002016020810190610b1d9190612e16565b611b22565b610b5f868684818110610b3757610b37612f8b565b9050602002016020810190610b4c9190612e16565b6005546001600160a01b03166000611c09565b610eed565b8060096000888886818110610b7b57610b7b612f8b565b9050602002016020810190610b909190612e16565b6001600160a01b03166001600160a01b0316815260200190815260200160002054610bbb9190612f78565b868684818110610bcd57610bcd612f8b565b9050602002016020810190610be29190612e16565b6001600160a01b031663dd62ed3e30610c036005546001600160a01b031690565b6040516001600160e01b031960e085901b1681526001600160a01b03928316600482015291166024820152604401602060405180830381865afa158015610c4e573d6000803e3d6000fd5b505050506040513d601f19601f82011682018060405250810190610c72919061300b565b03610b5f57610b5f868684818110610c8c57610c8c612f8b565b9050602002016020810190610ca19190612e16565b6005546001600160a01b031683611d56565b838383818110610cc557610cc5612f8b565b9050602002013560096000888886818110610ce257610ce2612f8b565b9050602002016020810190610cf79190612e16565b6001600160a01b03166001600160a01b031681526020019081526020016000206000828254610d269190612f78565b90915550610d699050868684818110610d4157610d41612f8b565b9050602002016020810190610d569190612e16565b6005546001600160a01b03163084611e69565b610b5f868684818110610d7e57610d7e612f8b565b9050602002016020810190610d939190612e16565b6005546001600160a01b031683611ea1565b6000848484818110610db957610db9612f8b565b9050602002013513610e275760405162461bcd60e51b815260206004820152603160248201527f63616e277420616464206120617373657420776974682061206e65676174697660448201527065206f72207a65726f2062616c616e636560781b606482015260840161094a565b610e56868684818110610e3c57610e3c612f8b565b9050602002016020810190610e519190612e16565b611f53565b8060096000888886818110610e6d57610e6d612f8b565b9050602002016020810190610e829190612e16565b6001600160a01b03168152602081019190915260400160002055610eb1868684818110610d4157610d41612f8b565b610eed868684818110610ec657610ec6612f8b565b9050602002016020810190610edb9190612e16565b6005546001600160a01b031683611c09565b5080610ef881612fdf565b9150506109a5565b50336001600160a01b03167f94d8531db1a8d5303233d7edbc0e34f09c2675f8d7e3670d537aee6702725c2585858585604051610f409493929190613024565b60405180910390a250505050565b610f56611aac565b610f606000611fb7565b565b6060600780548060200260200160405190810160405280929190818152602001828054801561050f57602002820191906000526020600020905b81546001600160a01b03168152600190910190602001808311610f9c575050505050905090565b6000610fce60025490565b610fda90600019612ff8565b905090565b610fe7611aac565b610ff36012600a61318d565b610ffd908261319c565b600a5550565b60606004805461049690612f2e565b600061101c611aac565b600061102a858560006118d0565b9050611034610fc3565b81111561107b5760405162461bcd60e51b81526020600482015260156024820152740c8cae0dee6d2e840dadee4ca40e8d0c2dc40dac2f605b1b604482015260640161094a565b6007546000036110c75760005b85518110156110c5576110b38682815181106110a6576110a6612f8b565b6020026020010151611f53565b806110bd81612fdf565b915050611088565b505b6110d43384878785612009565b949350505050565b600033816110ea82866113c1565b90508381101561114a5760405162461bcd60e51b815260206004820152602560248201527f45524332303a2064656372656173656420616c6c6f77616e63652062656c6f77604482015264207a65726f60d81b606482015260840161094a565b611157828686840361158e565b506001949350505050565b6007818154811061117257600080fd5b6000918252602090912001546001600160a01b0316905081565b60003361053e81858561172c565b600080805b6007548110156112de5760025460096000600784815481106111c3576111c3612f8b565b60009182526020808320909101546001600160a01b03168352820192909252604001902054106112005760018210156111fb57600191505b6112cc565b6000600960006007848154811061121957611219612f8b565b60009182526020808320909101546001600160a01b0316835282019290925260400190205461124760025490565b6112519190612fb7565b1561125d576001611260565b60005b60ff16600960006007858154811061127a5761127a612f8b565b60009182526020808320909101546001600160a01b031683528201929092526040019020546112a860025490565b6112b29190612fcb565b6112bc9190612f78565b9050808310156112ca578092505b505b806112d681612fdf565b91505061119f565b50919050565b606080611306836001600160a01b031660009081526020819052604090205490565b85111561134c5760405162461bcd60e51b81526020600482015260146024820152730e4cac8cacada40dadee4ca40e8d0c2dc40dac2f60631b604482015260640161094a565b60008061135a876000611465565b915091506113726113683390565b878785858c61218c565b90969095509350505050565b6060806105276108f8846001600160a01b031660009081526020819052604090205490565b6001600160a01b038116600090815260208190526040812054610544565b6001600160a01b03918216600090815260016020908152604080832093909416825291909152205490565b6113f4611aac565b6001600160a01b0381166114595760405162461bcd60e51b815260206004820152602660248201527f4f776e61626c653a206e6577206f776e657220697320746865207a65726f206160448201526564647265737360d01b606482015260840161094a565b61146281611fb7565b50565b600754606090819060008167ffffffffffffffff81111561148857611488612bc7565b6040519080825280602002602001820160405280156114b1578160200160208202803683370190505b50905060005b82811015611520576114f1600782815481106114d5576114d5612f8b565b6000918252602090912001546001600160a01b031688886123ad565b82828151811061150357611503612f8b565b60209081029190910101528061151881612fdf565b9150506114b7565b506007818180548060200260200160405190810160405280929190818152602001828054801561157957602002820191906000526020600020905b81546001600160a01b0316815260019091019060200180831161155b575b505050505091509350935050505b9250929050565b6001600160a01b0383166115f05760405162461bcd60e51b8152602060048201526024808201527f45524332303a20617070726f76652066726f6d20746865207a65726f206164646044820152637265737360e01b606482015260840161094a565b6001600160a01b0382166116515760405162461bcd60e51b815260206004820152602260248201527f45524332303a20617070726f766520746f20746865207a65726f206164647265604482015261737360f01b606482015260840161094a565b6001600160a01b0383811660008181526001602090815260408083209487168084529482529182902085905590518481527f8c5be1e5ebec7d5bd14f71427d1e84f3dd0314c0f7b2291e5b200ac8c7c3b925910160405180910390a3505050565b60006116be84846113c1565b9050600019811461172657818110156117195760405162461bcd60e51b815260206004820152601d60248201527f45524332303a20696e73756666696369656e7420616c6c6f77616e6365000000604482015260640161094a565b611726848484840361158e565b50505050565b6001600160a01b0383166117905760405162461bcd60e51b815260206004820152602560248201527f45524332303a207472616e736665722066726f6d20746865207a65726f206164604482015264647265737360d81b606482015260840161094a565b6001600160a01b0382166117f25760405162461bcd60e51b815260206004820152602360248201527f45524332303a207472616e7366657220746f20746865207a65726f206164647260448201526265737360e81b606482015260840161094a565b6001600160a01b0383166000908152602081905260409020548181101561186a5760405162461bcd60e51b815260206004820152602660248201527f45524332303a207472616e7366657220616d6f756e7420657863656564732062604482015265616c616e636560d01b606482015260840161094a565b6001600160a01b03848116600081815260208181526040808320878703905593871680835291849020805487019055925185815290927fddf252ad1be2c89b69c2b068fc378daa952ba7f163c4a11628f55a4df523b3ef910160405180910390a3611726565b600082518451146119235760405162461bcd60e51b815260206004820152601e60248201527f617272617973206d757374206265206f6620657175616c206c656e6774680000604482015260640161094a565b6007546000036119365750600a54610569565b6007548451146119925760405162461bcd60e51b815260206004820152602160248201527f616c6c206f776e656420617373657473206d75737420626520696e636c7564656044820152601960fa1b606482015260840161094a565b60001960005b8551811015611aa4576000600860008884815181106119b9576119b9612f8b565b60200260200101516001600160a01b03166001600160a01b031681526020019081526020016000205411611a445760405162461bcd60e51b815260206004820152602c60248201527f746f6b656e206973206e6f742063757272656e746c79206f776e65642062792060448201526b1d1a194818dbdb9d1c9858dd60a21b606482015260840161094a565b6000611a83878381518110611a5b57611a5b612f8b565b6020026020010151878481518110611a7557611a75612f8b565b6020026020010151876123dc565b905082811015611a91578092505b5080611a9c81612fdf565b915050611998565b509050610569565b6005546001600160a01b03163314610f605760405162461bcd60e51b815260206004820181905260248201527f4f776e61626c653a2063616c6c6572206973206e6f7420746865206f776e6572604482015260640161094a565b600080821215611b1e57611b19826131b3565b610544565b5090565b6000611b2d8261240c565b60078054919250600091611b4390600190612ff8565b81548110611b5357611b53612f8b565b600091825260209091200154600780546001600160a01b039092169250829184908110611b8257611b82612f8b565b9060005260206000200160006101000a8154816001600160a01b0302191690836001600160a01b031602179055506007805480611bc157611bc16131cf565b600082815260209020810160001990810180546001600160a01b0319169055019055611bed8183612431565b50506001600160a01b0316600090815260086020526040812055565b801580611c835750604051636eb1769f60e11b81523060048201526001600160a01b03838116602483015284169063dd62ed3e90604401602060405180830381865afa158015611c5d573d6000803e3d6000fd5b505050506040513d601f19601f82011682018060405250810190611c81919061300b565b155b611cee5760405162461bcd60e51b815260206004820152603660248201527f5361666545524332303a20617070726f76652066726f6d206e6f6e2d7a65726f60448201527520746f206e6f6e2d7a65726f20616c6c6f77616e636560501b606482015260840161094a565b6040516001600160a01b038316602482015260448101829052611d5190849063095ea7b360e01b906064015b60408051601f198184030181529190526020810180516001600160e01b03166001600160e01b03199093169290921790915261245c565b505050565b604051636eb1769f60e11b81523060048201526001600160a01b0383811660248301526000919085169063dd62ed3e90604401602060405180830381865afa158015611da6573d6000803e3d6000fd5b505050506040513d601f19601f82011682018060405250810190611dca919061300b565b905081811015611e2e5760405162461bcd60e51b815260206004820152602960248201527f5361666545524332303a2064656372656173656420616c6c6f77616e63652062604482015268656c6f77207a65726f60b81b606482015260840161094a565b6040516001600160a01b03841660248201528282036044820181905290611e6290869063095ea7b360e01b90606401611d1a565b5050505050565b6040516001600160a01b03808516602483015283166044820152606481018290526117269085906323b872dd60e01b90608401611d1a565b604051636eb1769f60e11b81523060048201526001600160a01b038381166024830152600091839186169063dd62ed3e90604401602060405180830381865afa158015611ef2573d6000803e3d6000fd5b505050506040513d601f19601f82011682018060405250810190611f16919061300b565b611f209190612f78565b6040516001600160a01b03851660248201526044810182905290915061172690859063095ea7b360e01b90606401611d1a565b600780546001808201835560008390527fa66cc928b5edb82af9bd49922954155ab7b0942694bea4ce44661d9a8736c68890910180546001600160a01b0319166001600160a01b0385161790559054611462918391611fb29190612ff8565b612431565b600580546001600160a01b038381166001600160a01b0319831681179093556040519116919082907f8be0079c531659141344cd1fd0a4f28419497f9722a3daafe3b4186f6b6457e090600090a35050565b61201161252e565b60005b83518110156121285761205b84828151811061203257612032612f8b565b6020026020010151873086858151811061204e5761204e612f8b565b6020026020010151611e69565b6120a984828151811061207057612070612f8b565b602002602001015161208a6005546001600160a01b031690565b85848151811061209c5761209c612f8b565b6020026020010151611ea1565b8281815181106120bb576120bb612f8b565b6020026020010151600960008684815181106120d9576120d9612f8b565b60200260200101516001600160a01b03166001600160a01b0316815260200190815260200160002060008282546121109190612f78565b9091555081905061212081612fdf565b915050612014565b506121338482612587565b836001600160a01b0316856001600160a01b03167fcca721777a6ecfefca61eb6abe93dd4f6bc3798df0cf7aacedffc26fbd7521c085858560405161217a939291906131e5565b60405180910390a3611e626001600655565b61219461252e565b836001600160a01b0316866001600160a01b0316146121b8576121b88487836116b2565b6121c28482612646565b60005b83518110156123415761220b8482815181106121e3576121e3612f8b565b6020026020010151878584815181106121fe576121fe612f8b565b6020026020010151612778565b61225984828151811061222057612220612f8b565b602002602001015161223a6005546001600160a01b031690565b85848151811061224c5761224c612f8b565b6020026020010151611d56565b82818151811061226b5761226b612f8b565b60200260200101516009600086848151811061228957612289612f8b565b60200260200101516001600160a01b03166001600160a01b0316815260200190815260200160002060008282546122c09190612ff8565b92505081905550600960008583815181106122dd576122dd612f8b565b60200260200101516001600160a01b03166001600160a01b031681526020019081526020016000205460000361232f5761232f84828151811061232257612322612f8b565b6020026020010151611b22565b8061233981612fdf565b9150506121c5565b50836001600160a01b0316856001600160a01b0316876001600160a01b03167fd27e5ec3786ce482fa46ef9a1d7f00baf52db125828c887b2b55c503a2eaaf55868686604051612393939291906131e5565b60405180910390a46123a56001600655565b505050505050565b6001600160a01b0383166000908152600960205260408120546110d4906123d360025490565b859190856127a8565b60006110d46123ea60025490565b6001600160a01b038616600090815260096020526040902054859190856127a8565b6001600160a01b03811660009081526008602052604081205461054490600190612ff8565b61243c816001612f78565b6001600160a01b0390921660009081526008602052604090209190915550565b60006124b1826040518060400160405280602081526020017f5361666545524332303a206c6f772d6c6576656c2063616c6c206661696c6564815250856001600160a01b03166128059092919063ffffffff16565b805190915015611d5157808060200190518101906124cf919061321b565b611d515760405162461bcd60e51b815260206004820152602a60248201527f5361666545524332303a204552433230206f7065726174696f6e20646964206e6044820152691bdd081cdd58d8d9595960b21b606482015260840161094a565b6002600654036125805760405162461bcd60e51b815260206004820152601f60248201527f5265656e7472616e637947756172643a207265656e7472616e742063616c6c00604482015260640161094a565b6002600655565b6001600160a01b0382166125dd5760405162461bcd60e51b815260206004820152601f60248201527f45524332303a206d696e7420746f20746865207a65726f206164647265737300604482015260640161094a565b80600260008282546125ef9190612f78565b90915550506001600160a01b038216600081815260208181526040808320805486019055518481527fddf252ad1be2c89b69c2b068fc378daa952ba7f163c4a11628f55a4df523b3ef910160405180910390a35050565b6001600160a01b0382166126a65760405162461bcd60e51b815260206004820152602160248201527f45524332303a206275726e2066726f6d20746865207a65726f206164647265736044820152607360f81b606482015260840161094a565b6001600160a01b0382166000908152602081905260409020548181101561271a5760405162461bcd60e51b815260206004820152602260248201527f45524332303a206275726e20616d6f756e7420657863656564732062616c616e604482015261636560f01b606482015260840161094a565b6001600160a01b0383166000818152602081815260408083208686039055600280548790039055518581529192917fddf252ad1be2c89b69c2b068fc378daa952ba7f163c4a11628f55a4df523b3ef910160405180910390a3505050565b6040516001600160a01b038316602482015260448101829052611d5190849063a9059cbb60e01b90606401611d1a565b6000806127b6868686612814565b905060018360028111156127cc576127cc61323d565b1480156127e95750600084806127e4576127e4612fa1565b868809115b156127fc576127f9600182612f78565b90505b95945050505050565b60606110d484846000856128c3565b600080806000198587098587029250828110838203039150508060000361284e5783828161284457612844612fa1565b0492505050610569565b80841161285a57600080fd5b60008486880960026001871981018816978890046003810283188082028403028082028403028082028403028082028403028082028403029081029092039091026000889003889004909101858311909403939093029303949094049190911702949350505050565b6060824710156129245760405162461bcd60e51b815260206004820152602660248201527f416464726573733a20696e73756666696369656e742062616c616e636520666f6044820152651c8818d85b1b60d21b606482015260840161094a565b600080866001600160a01b031685876040516129409190613253565b60006040518083038185875af1925050503d806000811461297d576040519150601f19603f3d011682016040523d82523d6000602084013e612982565b606091505b50915091506129938783838761299e565b979650505050505050565b60608315612a0d578251600003612a06576001600160a01b0385163b612a065760405162461bcd60e51b815260206004820152601d60248201527f416464726573733a2063616c6c20746f206e6f6e2d636f6e7472616374000000604482015260640161094a565b50816110d4565b6110d48383815115612a225781518083602001fd5b8060405162461bcd60e51b815260040161094a9190612a60565b60005b83811015612a57578181015183820152602001612a3f565b50506000910152565b6020815260008251806020840152612a7f816040850160208701612a3c565b601f01601f19169190910160400192915050565b600060208284031215612aa557600080fd5b5035919050565b600081518084526020808501945080840160005b83811015612ae55781516001600160a01b031687529582019590820190600101612ac0565b509495945050505050565b600081518084526020808501945080840160005b83811015612ae557815187529582019590820190600101612b04565b604081526000612b336040830185612aac565b82810360208401526127fc8185612af0565b6001600160a01b038116811461146257600080fd5b60008060408385031215612b6d57600080fd5b8235612b7881612b45565b946020939093013593505050565b600080600060608486031215612b9b57600080fd5b8335612ba681612b45565b92506020840135612bb681612b45565b929592945050506040919091013590565b634e487b7160e01b600052604160045260246000fd5b604051601f8201601f1916810167ffffffffffffffff81118282101715612c0657612c06612bc7565b604052919050565b600067ffffffffffffffff821115612c2857612c28612bc7565b5060051b60200190565b600082601f830112612c4357600080fd5b81356020612c58612c5383612c0e565b612bdd565b82815260059290921b84018101918181019086841115612c7757600080fd5b8286015b84811015612c9b578035612c8e81612b45565b8352918301918301612c7b565b509695505050505050565b600082601f830112612cb757600080fd5b81356020612cc7612c5383612c0e565b82815260059290921b84018101918181019086841115612ce657600080fd5b8286015b84811015612c9b5780358352918301918301612cea565b60008060408385031215612d1457600080fd5b823567ffffffffffffffff80821115612d2c57600080fd5b612d3886838701612c32565b93506020850135915080821115612d4e57600080fd5b50612d5b85828601612ca6565b9150509250929050565b60008083601f840112612d7757600080fd5b50813567ffffffffffffffff811115612d8f57600080fd5b6020830191508360208260051b850101111561158757600080fd5b60008060008060408587031215612dc057600080fd5b843567ffffffffffffffff80821115612dd857600080fd5b612de488838901612d65565b90965094506020870135915080821115612dfd57600080fd5b50612e0a87828801612d65565b95989497509550505050565b600060208284031215612e2857600080fd5b813561056981612b45565b6020815260006105696020830184612aac565b600080600060608486031215612e5b57600080fd5b833567ffffffffffffffff80821115612e7357600080fd5b612e7f87838801612c32565b94506020860135915080821115612e9557600080fd5b50612ea286828701612ca6565b9250506040840135612eb381612b45565b809150509250925092565b600080600060608486031215612ed357600080fd5b833592506020840135612ee581612b45565b91506040840135612eb381612b45565b60008060408385031215612f0857600080fd5b8235612f1381612b45565b91506020830135612f2381612b45565b809150509250929050565b600181811c90821680612f4257607f821691505b6020821081036112de57634e487b7160e01b600052602260045260246000fd5b634e487b7160e01b600052601160045260246000fd5b8082018082111561054457610544612f62565b634e487b7160e01b600052603260045260246000fd5b634e487b7160e01b600052601260045260246000fd5b600082612fc657612fc6612fa1565b500690565b600082612fda57612fda612fa1565b500490565b600060018201612ff157612ff1612f62565b5060010190565b8181038181111561054457610544612f62565b60006020828403121561301d57600080fd5b5051919050565b6040808252810184905260008560608301825b8781101561306757823561304a81612b45565b6001600160a01b0316825260209283019290910190600101613037565b5083810360208581019190915285825291508590820160005b8681101561309c57823582529183019190830190600101613080565b5098975050505050505050565b600181815b808511156130e45781600019048211156130ca576130ca612f62565b808516156130d757918102915b93841c93908002906130ae565b509250929050565b6000826130fb57506001610544565b8161310857506000610544565b816001811461311e576002811461312857613144565b6001915050610544565b60ff84111561313957613139612f62565b50506001821b610544565b5060208310610133831016604e8410600b8410161715613167575081810a610544565b61317183836130a9565b806000190482111561318557613185612f62565b029392505050565b600061056960ff8416836130ec565b808202811582820484141761054457610544612f62565b6000600160ff1b82016131c8576131c8612f62565b5060000390565b634e487b7160e01b600052603160045260246000fd5b6060815260006131f86060830186612aac565b828103602084015261320a8186612af0565b915050826040830152949350505050565b60006020828403121561322d57600080fd5b8151801515811461056957600080fd5b634e487b7160e01b600052602160045260246000fd5b60008251613265818460208701612a3c565b919091019291505056fea26469706673582212209ed2cd51a7423e6807d23721119a741dbee42a64e0ece7c9bb3cd54988390c9e64736f6c63430008130033a26469706673582212205f2426fa0222448c26294b85a75a84bbda0635291d61b595900d281e30b6f98764736f6c63430008130033",
		"linkReferences": {}
	},
	"methodIdentifiers": {
		"createPool(address,string,string,uint256)": "54d0b4c6",
		"getPool(address)": "bbe4f6db",
		"owner()": "8da5cb5b",
		"poolOwner()": "cf0b2270",
		"renounceOwnership()": "715018a6",
		"traderAddresses(uint256)": "17dcf29b",
		"traderToPool(address)": "804905c9",
		"transferOwnership(address)": "f2fde38b"
	},
	"id": 34
}